:020000040800F2
:100000004812002045010008131900087117000864
:100010000F190008D5100008192100080000000081
:10002000000000000000000000000000E91A0008C5
:10003000051500080000000099190008FD1B0008C4
:100040005F0100085F0100085F0100085F01000810
:100050005F0100085F0100085F0100085F01000800
:100060005F0100085F0100085F0100085F010008F0
:100070005F0100085F0100085F0100085F010008E0
:100080005F0100085F0100085F0100085F010008D0
:100090005F0100085F0100085F0100085F010008C0
:1000A0005F0100085F0100085F0100085F010008B0
:1000B000611C00085F0100085F0100085F01000883
:1000C0005F0100085F0100085F0100085F01000890
:1000D0005F0100087D1D0008911D00085F010008F8
:1000E0005F0100085F0100085F0100085F01000870
:1000F0005F0100085F0100085F0100085F01000860
:100100005F0100085F0100085F0100085F0100084F
:100110005F0100085F0100085F0100085F0100083F
:100120005F0100085F0100085F0100085F0100082F
:10013000DFF80CD000F068FE00480047B925000841
:10014000481200200648804706480047FEE7FEE7C1
:10015000FEE7FEE7FEE7FEE7FEE7FEE7FEE7FEE777
:10016000011C0008310100082DE9F04F4FF0000C90
:100170004FF0000301EB1C6EBEF90250BEF90040C7
:100180000EF5807EBEF90290BEF900800EF5807EED
:10019000BEF90270BEF900600EF5807EBEF902B0B5
:1001A000BEF900A00EF5807ED044D944A8EB4A0ADF
:1001B000A9EB4B0B4FEAA4044FEAA50504EBA604F8
:1001C00005EBA705A4EB6606A5EB670704EBA804FF
:1001D00005EBA905A4EB6808A5EB690906EBAB06DE
:1001E000A7EBAA07A6EB6B0B07EB6A0A458020F882
:1001F000044B478020F8046BA0F8029020F8048B91
:10020000A0F802A020F804BB03F1010393FAA3FCB9
:10021000402BAFD1A0EB82014FF0100312090FF277
:10022000361000F1000006B403EB430C6144A2F564
:10023000803202EB8332B1F90250B1F90040A1EBF8
:100240000301B0F902B0B0F900A000F10400A5EB81
:10025000040E0EFB0BFC0AEB4B0E05FB0ACB04FB5A
:100260000ECAB1F90250B1F90040A1EB0301B0F997
:100270000290B0F9008000F10400A5EB040E0EFB23
:1002800009FC08EB490E05FB08C904FB0EC8B1F9CF
:100290000250B1F90040A1EB0301B0F90270B0F9CE
:1002A000006000F10400A5EB040E0EFB07FC06EB5A
:1002B000470E05FB06C704FB0EC6B1F90250B1F9A3
:1002C000004001F10001D044D944A8EB4A0AA9EB4F
:1002D0004B0B4FEAA4044FEAA50504EB264405EBBB
:1002E0002745A4EBE636A5EBE73704EB284405EBFE
:1002F0002945A4EBE838A5EBE93906EB2B46A7EB3B
:100300002A47A6EBEB3B07EBEA3A4D800C801944F9
:100310004F800E801944A1F80290A1F80080194482
:10032000A1F802A021F804BBB2F5803283DA03EB16
:10033000430C6144A2F101025FEA024E18BFA0EB38
:100340000C007FF476AF06BC4FEA830392087FF47B
:100350006AAFBDE8F08F00400000004000000040A0
:1003600000005DDD213BA3227E180000412D7EA50B
:10037000412D0000412D00C000405DDD82E75DDDC4
:10038000213B7EA5412D00400000004000000040C0
:100390000000AA2A94126B39460649327C0CA81137
:1003A0008E2349327C0CA3227E1821F77931AA2AA8
:1003B0009412A8118E235DDD213BA3227E1800003C
:1003C000412D95C6B13F461A2B1E58EE3735BEB4A7
:1003D000C53EA8118E235DDD213B63A97138DF087E
:1003E0009A28B7CDC53E7EA5412D0000412D00C005
:1003F000004063A92B1E21F77931BEB4C53EBEB4BF
:100400007C0C58EE373561AC213B95C6BAF9BAE59C
:1004100071383BA737355DDD82E75DDD213B7EA589
:10042000412D21F766D756D53F3D3BA78E23A81116
:10043000C9CAB7CDC53E61AC7E18AA2AC1C295C64D
:10044000B13FBEB47C0C0040000000400000004002
:1004500000001E3BB504693E9201C83C2403EB3505
:100460006409C83C24036B3946066C30060E1E3BFB
:10047000B504EB356409AA2A94126B394606493251
:100480007C0CAE240917AF37D607882E8D0F7E1E41
:100490005D1BEB356409AA2A941224188C1F1E34A4
:1004A000F10AB3269015A8118E2349327C0CA322A1
:1004B0007E18140B60276C30060E7E1E5D1B7104C7
:1004C000FB2A882E8D0F461A2B1EC7FD5A2E9D2CF7
:1004D0001211FE15E72021F77931AA2A9412A811EA
:1004E0008E2387F05334B2281314480D202602EAD5
:1004F000E536B3269015DF089A289CE32B39AE2405
:1005000009177104FB2A5DDD213BA3227E18000040
:10051000412D4ED7C53C9320EF198FFB6C2F78D11E
:10052000153E7E1E5D1B21F77931E2CB0F3F641C27
:10053000C61CB8F2683395C6B13F461A2B1E58EE5A
:10054000373597C1FB3F24188C1F02EAE536F0BC13
:10055000EC3FFE15E720BAE57138A6B8853FD51304
:100560003D2282E1DB39BEB4C53EA8118E235DDD9C
:10057000213B40B1AF3D790FDA244DD9423C2EAE3C
:10058000423C480D202656D53F3D8EAB823A140B97
:10059000602778D1153E63A97138DF089A28B7CD56
:1005A000C53EB1A71236A906CE2915CA4F3F78A677
:1005B00068337104FB2A95C6B13FBCA57630390279
:1005C000212C38C3EC3F7EA5412D0000412D00C0F9
:1005D0000040BCA5CE29C7FD5A2EF0BCEC3F78A642
:1005E00020268FFB6C2F09BAB13FB1A73D2257F9E6
:1005F00076304DB74F3F63A92B1E21F77931BEB43A
:10060000C53E8EABEF19ECF474325EB2153E2EAEE1
:100610009015B8F268332DB03F3D40B1121187F00C
:1006200053342EAE423CBEB47C0C58EE373561AC30
:10063000213BA6B8D6072BEC1236C8AADB39F0BC92
:10064000240302EAE53663A9713897C16EFEDCE740
:10065000B03734A8E53695C6BAF9BAE571383BA784
:100660003735E2CB0FF59CE32B3978A6683378D188
:1006700073F082E1DB39EDA579314ED7EDEB6DDF1B
:10068000823A99A56C2F5DDD82E75DDD213B7EA579
:10069000412D9CE33AE352DBB63B99A5FB2A02EAE3
:1006A00019DF4DD9423CEDA59A2887F026DB4ED7BD
:1006B000C53C78A6202621F766D756D53F3D3BA7F7
:1006C0008E23C7FDDFD363D3AF3D34A8E720710489
:1006D00094D078D1153E63A92B1E140B8CCD94CFEA
:1006E000723EC8AA5D1BA811C9CAB7CDC53E61AC90
:1006F0007E18241850C8E2CB0F3F2EAE90157E1EF8
:1007000025C615CA4F3F2DB09412AE244AC451C815
:10071000853F5EB28D0FAA2AC1C295C6B13FBEB455
:100720007C0C6C308EC1E2C4D43F4DB76409EB350C
:10073000B1C038C3EC3F09BA46061E3B2CC097C176
:10074000FB3FF0BC2403D2B201E000F8012B491EAC
:10075000FBD270470022F6E710B513460A4604465E
:100760001946FFF7F0FF204610BD421E12F8013F68
:10077000002BFBD111F8013B02F8013B002BF9D112
:100780007047F0B480EA0102D40F4200B2EB410F8F
:1007900002D20246084611464A0042D0C30DDDB2DD
:1007A000C1F3C752AD1A202D35DAC1F3160141F459
:1007B000000204B15242C5F1200602FA06F12A41B4
:1007C0001044B3EBD05F23D0C4B1012DA0EBC350D4
:1007D00009DCF0BC4FF0004202EAC352DBB200F584
:1007E000000000F034BA400000F1807000EBC3500C
:1007F000A0F1807040EAD170490009E0490841EA5F
:10080000C071A0EBC35000F50000400800EBC350DE
:10081000F0BC00F013BA6142012202EB4101001B5F
:10082000F6E7F0BC704781F00041AAE780F0004095
:10083000A7E780EA010210B502F00043400022D091
:100840004A001FD0010E01EB1261C0F35600C2F343
:10085000560240F4000042F40002A0FB0220000413
:100860007F39140400D0401C50EA124001D44000EB
:10087000491EC2B20C0604EBD010401C4008802A6E
:1008800002D003E0002010BD20F00100002900DAB2
:100890000020184310BD30B480EA010202F0004588
:1008A00030F0004221F0004013D090B1C30DD40DC0
:1008B000C2F31601C0F31600E41A41F4000140F43B
:1008C00000027D34914201D3641C00E04900002CF9
:1008D00002DA30BC002070474FF400000023914240
:1008E00001D3891A034340084FEA4101F7D151B1BE
:1008F000914202D14FF0004105E002D24FF00101D8
:1009000001E06FF0010103EBC450284430BC00F05B
:1009100095B92DE9FE4F81EA030404F0004421F06B
:10092000004100944FF0000B23F0004350EA010413
:100930005ED052EA03045BD0C3F30A54C1F30A55F4
:100940002C44A4F2F3340194A0FB0254C1F313012C
:1009500041F48011C3F3130343F4801301FB0244F9
:1009600000FB034E840A970A44EA815447EA8357FE
:10097000A4FB076802958D0A05FB07854FEA932CB7
:1009800004FB0C542705029D4FEA065847EA163728
:10099000B5EB08056EEB070C870E920E47EA811740
:1009A00042EA8312A7FB0201B6EB0B0164EB0004E1
:1009B0002B0D43EA0C335E1844EB1C50DA465146CB
:1009C000E7FB0201C5F313044FEA0B3343EA145368
:1009D0004FEA0432019C43EA0603A4F10C0402949A
:1009E000009CCDE900B400F06FF903B0BDE8F08FD2
:1009F00000200146F9E72DE9F04D81EA030404F0F7
:100A0000004B21F0004514464FF0000A23F000414E
:100A100050EA050220D054EA01021DD0C5F30A575E
:100A20000246C5F31303C1F31300C1F30A5640F4A1
:100A3000801543F48013A7EB0608101BD64608F276
:100A4000FD3873EB050002D308F1010801E09218AC
:100A50005B41B8F1000F03DA00200146BDE8F08DDC
:100A600000204FF48011064684460EE0171B73EBFE
:100A7000050705D3121B63EB050306434CEA010C83
:100A800049084FEA300092185B4150EA0107EDD166
:100A900052EA030012D082EA040083EA0501084307
:100AA00005D0101BAB4106D20122002306E0002234
:100AB0004FF0004302E06FF0010253101AEB060002
:100AC0004CEB085110EB0A0041EB0B01BDE8F04D77
:100AD00000F0EBB8C10F80EAE0700844CA07962323
:100AE000002100F0B4B80EB5C10F80EAE0700844F0
:100AF000CA07002140F233438DE80E000A460B4638
:100B000000F0E2F803B000BD00F0004220F0004029
:100B1000C10DC0F3160040F400007F2901DA002067
:100B20007047962903DCC1F19601C84001E096396F
:100B30008840002AF4D04042704720F00040C10DA8
:100B4000C0F3160040F400007F2901DA002070474E
:100B5000962903DCC1F19601C84070479639884058
:100B6000704770B5C1F30A5201F000450024C1F38B
:100B7000130140F2FF3341F480119A4201DA002060
:100B800070BD40F233439A42A2F2334203DC524238
:100B900000F044F800E090402C43F1D0404270BD9A
:100BA00000F0004230F000400AD0C10D01F5607144
:100BB000C0F3160042EA0151C208400711437047D2
:100BC00000200146704701F0004330B421F000419D
:100BD00050EA010206D00A0DA2F56072C1F31301BA
:100BE000002A02DC30BC00207047440F44EAC104F4
:100BF000C100E01830BC00EBC25000F01FB8202A42
:100C000004DB203A00FA02F1002070479140C2F163
:100C1000200320FA03F3194390407047202A04DB95
:100C2000203A21FA02F00021704721FA02F3D04065
:100C3000C2F1200291400843194670470029A8BF1D
:100C40007047401C490008BF20F00100704710B4F5
:100C5000B0FA80FC00FA0CF050EA010404BF10BCAA
:100C6000704749B1CCF1200421FA04F411FA0CF1D7
:100C700018BF012121430843A3EB0C01CB1D4FEA10
:100C800000614FEA102042BF002010BC704700EB0B
:100C9000C35010440029A4BF10BC7047401C490039
:100CA00008BF20F0010010BC704710B5141E73F18E
:100CB000000408DA401C41F1000192185B411A431C
:100CC00001D120F0010010BD2DE9F04D92469B4668
:100CD00011B1B1FA81F202E0B0FA80F2203290460E
:100CE000FFF78DFF04460F4640EA0A0041EA0B0178
:100CF00053465A46084313D0114653EA010019D00F
:100D0000C8F140025046FFF789FF05460E4650469F
:100D100059464246FFF773FF084305D0012004E01F
:100D200020463946BDE8F08D0020054346EAE076CE
:100D30002C4337430A986305E40AA0EB080000221D
:100D4000FD0A44EA47540A3002D500200146E9E78B
:100D5000010510196941DDE9084500196941BDE83F
:100D6000F04DA2E72DE9F04D00231A461B1A8A41E7
:100D700003DB00200146BDE8F08DC1F30A52C1F348
:100D8000130141F480154FF0000BD10702D1001878
:100D90006D41521E0027044640F2FF11384601EB18
:100DA000620A3E468046024600204FF48011FFF75B
:100DB00035FFC2197141BB1846EB0100B4EB030CBF
:100DC00075EB000C04D3E41A65EB000517460E46DC
:100DD000241908F101006D4180463428E3DDF9193A
:100DE00046EB0600091BA84103D24FF0FF32134621
:100DF00001E0002213461BEB070046EB0A51BDE859
:100E0000F04DFFF752BF0000064C074D06E0E068CA
:100E100040F0010394E8070098471034AC42F6D341
:100E2000FFF78AF9342800085428000821B18268A5
:100E300042F00102826003E0826822F001028260D7
:100E4000704721B1826842F48072826003E0826858
:100E500022F4807282607047014600208A6802F0A6
:100E600004020AB1012000E0002070470146002082
:100E70008A6802F008020AB1012000E000207047F1
:100E800030B502460020002350680F4C20400D79F9
:100E90000C6844EA05242043506090680B4C2040C5
:100EA000D1E902542C434D7944EA45042043906033
:100EB000D06A20F470000C7C641EE4B2234340EA44
:100EC0000350D06230BD0000FFFEF0FFFDF7F1FFE0
:100ED000F0B504460D4600200021092D11DDE06823
:100EE000A5F10A0606EB4607072606FA07F188432E
:100EF000A5F10A0606EB460603FA06F10843E06090
:100F00000CE0206905EB4507072606FA07F1884340
:100F100005EB450603FA06F108432061072A0FDABC
:100F2000606B561E06EB86071F2606FA07F18843FC
:100F3000561E06EB860605FA06F10843606322E0BA
:100F40000D2A0FDA206BD61F06EB86071F2606FA3E
:100F500007F18843D61F06EB860605FA06F108431B
:100F6000206310E0E06AA2F10D0606EB86071F265B
:100F700006FA07F18843A2F10D0606EB860605FA8C
:100F800006F10843E062F0BD816841F0080181602C
:100F9000704721B1826842F4A002826003E0826857
:100FA00022F4A00282607047816841F004018160F0
:100FB0007047000008B50121042000F01BFD8020CF
:100FC000ADF8000000208DF803006946014800F0EC
:100FD000D3FA08BD0008014010B5FFF7EBFF00F0A1
:100FE00001F810BD00B591B00121480200F002FDEA
:100FF0000121084600F0DEFC334800F079F8334860
:1010000001903348029000200390012004900020BA
:10101000059006904FF48070079080000890202083
:10102000099000020A9000200B9001A9264800F0C8
:1010300005F90121244800F04FF800200C908DF8AC
:10104000340001208DF835004FF460200E90002010
:101050000F9001208DF840000CA91C484C38FFF778
:101060000FFF4FF4004000F099FC072301221946BE
:1010700016484C38FFF72CFF012114484C38FFF775
:10108000E0FE012111484C38FFF7D0FE0F484C38E4
:10109000FFF77AFF00BF0D484C38FFF7E7FE002846
:1010A000F9D10A484C38FFF77FFF00BF07484C389A
:1010B000FFF7D2FE0028F9D1012104484C38FFF790
:1010C00068FF11B000BD0000080002404C24014040
:1010D0003E00002000BFFEE721B1026842F001029D
:1010E000026004E002684FF6FE731A400260704727
:1010F00001684FF6FE7211400160002101604160FD
:101100008160C1604B49884208D14A490839496821
:1011100041F00F01474A083A51608AE045491431CD
:10112000884208D143490839496841F0F001414AF1
:10113000083A51607DE03F492831884208D13D4955
:101140000839496841F470613A4A083A516070E0E0
:1011500038493C31884208D136490839496841F458
:101160007041344A083A516063E032495031884254
:1011700008D130490839496841F470212D4A083AAC
:10118000516056E02B496431884208D12949083919
:10119000496841F47001274A083A516049E02549FD
:1011A0007831884208D123490839496841F0706193
:1011B000204A083A51603CE01F49884206D1011F8D
:1011C000096841F00F01021F116032E01A49143121
:1011D000884208D11849091F096841F0F001164AF0
:1011E000121F116025E014492831884208D11249A4
:1011F000091F096841F470610F4A121F116018E05D
:101200000D493C31884208D10B49091F096841F456
:101210007041094A121F11600BE0074950318842A2
:1012200007D10549091F096841F47021024A121FBC
:1012300011607047080002400804024010B5002207
:10124000026847F6F0739A430C6A8B6823430C6973
:1012500023434C6923438C692343CC6923434C6A61
:1012600023438C6A23431A430260CB6843600B68B4
:1012700083604B68C36010BD10B50024154800683A
:1012800020F00F00134908600846006840F008008D
:10129000086004E0601CC4B2012001F001F80E48AF
:1012A000006808B1C82CF5DBC82C01DB012010BD9B
:1012B000002404E0601CC4B2012000F0F1FF0648E5
:1012C000006808B9F02CF5DBF02C01DB0120EEE71B
:1012D0000020ECE700080140000121422DE9F84F11
:1012E00000F0CAF800F0A6F8FFF7C6FFCC2000F027
:1012F000CFF8BE2000F0CCF800F08AF8834600F06A
:1013000087F80446072C08DDE043C4B26FEA0B00FF
:1013100000F0FF0B4FF0000A01E04FF0010AA14678
:101320004FEA09200FFA80F909EB0B000FFA80F958
:101330004846FFF7CFFB0090FFF732FC074600223C
:10134000084BFFF7E6FA0546FFF70BFC0FFA80F9AA
:10135000BAF1000F02D04846BDE8F88FC9F100008D
:1013600000B2F9E70000E43F08B50121042000F0D5
:1013700041FB0120ADF8000010208DF80300032090
:101380008DF802006946064800F0F6F8012104488D
:1013900000F07DF900F04EF8FFF76EFF08BD000089
:1013A0000008014010B51748006820F00F001549EB
:1013B00008600846006840F00300086000201249F9
:1013C0000860022000F06CFF01201049C1F8800184
:1013D0000C48006820F00F000A49086008460068C1
:1013E00040F0080008600C2000F05AFF06488038E2
:1013F000006808B1012400E00024322000F050FF12
:10140000204610BD00080140800121420000214219
:1014100070B50026012508E0FFF7C4FF0446E0018F
:1014200040EA6600C6B2681CC5B2082DF4DD30463D
:1014300070BD000010B50D48006820F00F000B498A
:1014400008600846006840F0030008600020084972
:10145000086040F2EE2000F023FF01200549C1F8AA
:1014600080010F2000F01CFF10BD000000080140AB
:10147000800121420000214210B5FFF7DBFFFFF79A
:10148000FBFECC2000F004F8442000F001F810BD71
:1014900070B504461848006820F00F00164908602F
:1014A0000846006840F003000860012520E004F0D1
:1014B000010664106EB1002010490860022000F09F
:1014C000EFFE01200E49C1F880013C2000F0E8FE4B
:1014D0000CE00020094908603C2000F0E1FE0120FA
:1014E0000749C1F88001022000F0DAFE681CC5B28D
:1014F000082DDCDD70BD00000008014080012142A4
:101500000000214270470EB50121084600F062FA42
:1015100000F01DF84FF47A70ADF804004720ADF8E4
:1015200000000020ADF8020069464FF0804000F056
:10153000D3FB0121880700F0A5FB0122114690078B
:1015400000F0C0FB0121880700F09FFB0EBD08B52D
:101550004FF4E06000F016FA1C208DF80000002027
:101560008DF8010003208DF8020001208DF80300A2
:10157000684600F0CFF908BD2DE9F041024600258C
:101580000026002000230024002791F803C00CF05F
:101590000F0591F803C00CF0100CBCF1000F03D044
:1015A00091F802C04CEA050591F800C0BCF1000FAB
:1015B00031D0146800202BE04FF0010C0CFA00F33E
:1015C000B1F800C00CEA03069E4220D183004FF020
:1015D0000F0C0CFA03F7BC4305FA03FC4CEA0404B5
:1015E00091F803C0BCF1280F06D14FF0010C0CFAA2
:1015F00000FCC2F814C00AE091F803C0BCF1480F27
:1016000005D14FF0010C0CFA00FCC2F810C0401CD0
:101610000828D1D31460B1F800C0BCF1FF0F34DD4D
:10162000546800202EE000F1080C4FF0010808FA81
:101630000CF3B1F800C00CEA03069E4221D18300EE
:101640004FF00F0C0CFA03F7BC4305FA03FC4CEA0D
:10165000040491F803C0BCF1280F05D100F1080C77
:1016600008FA0CF8C2F8148091F803C0BCF1480FD6
:1016700007D100F1080C4FF0010808FA0CF8C2F885
:101680001080401C0828CED35460BDE8F081016171
:10169000704700002DE9F04F89B000245DE031482B
:1016A00030F824000FFA80F92E4850F824004FEA51
:1016B000204A4846FFF70EFA80464FF08741FFF771
:1016C000B8F807464FF08E41FFF7E5F8054650465B
:1016D000FFF700FA80464FF08741FFF7AAF8074668
:1016E0004FF08E41FFF7D7F8064631463046FFF7F8
:1016F000A0F8294602902846FFF79BF8019002992E
:10170000FFF73FF80390FFF74BFACDE9040100F033
:10171000C3FF0022144BCDE90601FFF76CF9074621
:10172000FFF751FA83465CB94FF08E415846FFF7F8
:1017300080F80746FFF701FA0C4941F824000AE057
:101740004FF08F415846FFF774F80746FFF7F5F959
:10175000064941F82400601C84B2802C9FDB09B04C
:10176000BDE8F08F4406002000007040440A0020CD
:1017700000BFFEE72DE9F05F4FF0000A21E01349BA
:10178000098840F2DC5201FB02F0FFF7ACF9804619
:101790004FF066320E4BFFF7BCF8064600220D4BA9
:1017A000FFF729F90446FFF70EFA83465846FFF77C
:1017B000ABF90004084941F82A000AF101001FFAB8
:1017C00080FABAF1FF0FDADDBDE8F09F3E0000209D
:1017D00066660A400000B040440200201CB5044682
:1017E000062269463B2000F04FF89DF801009DF865
:1017F000001040EA012000B220809DF803009DF80F
:10180000021040EA012000B260809DF805009DF8BA
:10181000041040EA012000B2A080B4F900001CBD11
:1018200008B50020009001226946752000F02CF8D0
:101830009DF80000682801D0002008BD0120FCE7C9
:1018400070B50024002500BF06E0002500E06D1CF7
:10185000B5F57A7FFBDB641CB4F57A7FF5DB0021FC
:101860006B2000F03DF80721192000F039F806211F
:101870001A2000F035F800211C2000F031F8182162
:101880001B2000F02DF870BD2DE9F04107460C46F5
:10189000154600F005FED02000F0D4FD00F02CFE2F
:1018A000384600F0CFFD00F027FE00F0F9FDD12012
:1018B00000F0C8FD00F020FE002606E0012000F048
:1018C00097FD2070641C701CC6B2681EB042F5DC27
:1018D000002000F08DFD207000F0FCFDBDE8F081DF
:1018E00070B505460C4600F0DBFDD02000F0AAFDE7
:1018F00000F002FE284600F0A5FD00F0FDFD2046A8
:1019000000F0A0FD00F0F8FD00F0E4FD70BD00BFA8
:10191000FEE7704770B5002100230F22C47804B39E
:10192000154C246804F4E064C4F5E064210AC1F1B4
:101930000403CA40447804FA03F184781440214334
:1019400009010E4C0678A155047804F01F05012406
:10195000AC4005786D11AD0005F1E025C5F80041FA
:1019600009E0047804F01F050124AC40044D06781A
:10197000761145F8264070BD0CED00E000E400E073
:1019800080E100E002490143024A11607047000013
:101990000000FA050CED00E0704700000146002051
:1019A000034A506820F440400843506070470000EC
:1019B0000010024029B1064A52690243044B5A61A1
:1019C00004E0034A52698243014B5A6170470000A8
:1019D0000010024029B1064AD2690243044BDA6181
:1019E00004E0034AD2698243014BDA617047000088
:1019F0000010024029B1064A92690243044B9A61E1
:101A000004E0034A92698243014B9A6170470000E7
:101A10000010024030B500210022002400232D4D8B
:101A20006D6805F00C0121B1042905D0082923D1E6
:101A300005E0294D056022E0274D05601FE0254D9A
:101A40006D6805F47012234D6D6805F4803402252D
:101A500005EB92421CB9214D554305600BE01D4D2D
:101A60006D6805F400351DB11C4D5543056002E05D
:101A7000194D5543056002E0174D056000BF00BFDA
:101A8000144D6D6805F0F0010909154D6B5C056892
:101A9000DD4045600F4D6D6805F4E061090A104DA9
:101AA0006B5C4568DD4085600A4D6D6805F46051EA
:101AB000C90A0B4D6B5C4568DD40C560054D6D681E
:101AC00005F44041890B074D6B5CC568B5FBF3F528
:101AD000056130BD0010024000127A0000093D008F
:101AE0001C0000202C000020704710B500F002F808
:101AF00010BD00000CB50020019000903348006834
:101B000040F480303149086000BF3048006800F47C
:101B1000003000900198401C0190009818B901987D
:101B2000B0F5A06FF1D12948006800F4003010B181
:101B30000120009001E0002000900098012843D18E
:101B40002348006840F010002149086008460068FA
:101B500020F0030008600846006840F002000860BA
:101B60001A48406819494860084640684860084675
:101B7000406840F4806048600846406820F47C106B
:101B800048600846406840F4E8104860084600682D
:101B900040F08070086000BF0C48006800F00070E2
:101BA0000028F9D00948406820F003000749486040
:101BB0000846406840F00200486000BF03484068A3
:101BC00000F00C000828F9D10CBD00000010024004
:101BD00000200240042808D14FF0E021096941F0BB
:101BE00004014FF0E022116107E04FF0E0210969A4
:101BF00021F004014FF0E0221161704770470000AE
:101C000010B51348006840F001001149086008460B
:101C10004068104908400E494860084600680E496F
:101C200008400B4908600846006820F480200860DE
:101C30000846406820F4FE0048604FF41F008860AA
:101C4000FFF753FF4FF000600449086010BD00002B
:101C5000001002400000FFF8FFFFF6FE08ED00E074
:101C600010B50121880700F01CF840B10448008835
:101C7000401C034908800121880700F003F810BDCB
:101C800000000020CA430282704721B1028842F05E
:101C90000102028004E002884FF6FE731A400280BF
:101CA000704730B50246002000230024158A05EA5B
:101CB0000103958905EA010413B10CB1012000E08C
:101CC000002030BD1AB183890B43838102E08389F0
:101CD0008B43838170470000002202881D4B98428D
:101CE0000ED01D4B98420BD0B0F1804F08D01B4B4B
:101CF000984205D01A4B984202D01A4B984204D110
:101D00004FF68F731A404B881A43174B984207D0EF
:101D1000164B984204D04FF6FF431A40CB881A4323
:101D200002808B8883850B8803850A4B98420BD0F1
:101D3000094B984208D00E4B984205D00D4B984263
:101D400002D00D4B984201D10B7A03860123838286
:101D500070470000002C01400034014000040040A6
:101D600000080040000C004000100040001400403B
:101D700000400140004401400048014010B540F2DD
:101D80002551024800F009F910BD0000003801405B
:101D900010B540F225516B4800F0FFF890B169484A
:101DA000001D00886849087008460078242802D180
:101DB00001206649087064480078402802D101205B
:101DC0006349087061480078002860D06148008845
:101DD000FF2840D85C4801785E4802880088401C93
:101DE0005C4B18805C48815418460088042823D135
:101DF0005A48007858490978884215D157484078A0
:101E00005549497888420FD1544880785249897899
:101E1000884209D15148C0784F49C978884203D1D6
:101E200001204A49087007E00020484908704FF433
:101E300080714948FEF78EFC46480088062812DD6E
:101E4000002042490870434908804FF4807142489D
:101E5000FEF780FC07E000203E4908804FF48071C7
:101E60003D48FEF777FC384800780A280FD13748FC
:101E7000007860B101203A490870002033490870A9
:101E8000344908804FF480713348FEF763FC3048D2
:101E90000078002854D02F480088FF2839D82A48D5
:101EA00001782C4802880088401C2A4B18802A4858
:101EB000815418460088042823D12A4800782649EE
:101EC0000978884215D127484078234949788842C3
:101ED0000FD12448807820498978884209D1214847
:101EE000C0781D49C978884203D10120184908707B
:101EF00007E00020164908704FF480711648FEF77D
:101F000029FC14480088062806DD002010490870C6
:101F100002E000200F4908800B4800780A280FD102
:101F20000B48007860B10C4800F0F8F80020084930
:101F30000870084908804FF480710748FEF70AFCD2
:101F400010BD00000044004032000020300000209E
:101F50003100002034000020430100203600002022
:101F6000020000203A00002021B1828942F4005290
:101F7000828104E082894DF6FF731A4082817047A6
:101F800002460020B1F5007F00D100BF13880B404E
:101F90000BB1012000E00020704770B5024600241C
:101FA00000230025002040F66A16B14200D100BF90
:101FB000C1F3421501F01F03012606FA03F3012DB8
:101FC00002D19689334006E0022D02D1168A3340B1
:101FD00001E0968A33400C12012606FA04F41688B2
:101FE000344013B10CB1012000E0002070BDF0B509
:101FF0000346002400260025002040F66A17B94257
:1020000000D100BF1846C1F3421401F01F0601279A
:1020100007FA06F5012C01D10C3004E0022C01D1A5
:10202000103000E014301AB107682F43076002E057
:102030000768AF430760F0BD2DE9F04786B005465D
:102040000E460024A24600BFA1460027B08900B179
:1020500000BF2F462C8A4CF6FF700440F0880443E2
:102060002C82AC894EF6F3100440B08831890843C5
:10207000718908430443AC81AC8A4FF6FF400440A9
:10208000B0890443AC8201A8FFF7C4FC1F48874213
:1020900002D1DDF810A001E0DDF80CA0A88900F461
:1020A000004040B10AEBCA0000EB0A103168490059
:1020B000B0FBF1F807E00AEBCA0000EB0A10316848
:1020C0008900B0FBF1F86420B8FBF0F004012009AE
:1020D000642101FB1089A88900F4004040B132203E
:1020E00000EBC900B0FBF1F000F00700044308E08A
:1020F000322000EB09106421B0FBF1F000F00F007A
:1021000004432C8106B0BDE8F08700000038014090
:10211000C1F308028280704700BFFEE710B5044695
:102120000BE000BF40210748FFF72AFF0028F9D045
:1021300021780448FFF7ECFF641C20780028F0D1D8
:1021400010BD00000044004002E008C8121F08C192
:10215000002AFAD170477047002001E001C1121F28
:10216000002AFBD170470000014908607047000059
:1021700040000020F0B58FB004460D4616461F46BD
:1021800000200C900D900E9009900A900B900690F4
:1021900007900890039004900590009001900290A1
:1021A00003A92548007800F0C9F96946234800785A
:1021B00000F0C4F9B4F900000CA900F0BFF9B5F9BA
:1021C000000009A900F0BAF9B6F9000006A900F06C
:1021D000B5F91BA13846FEF7C8FA1AA13846FEF732
:1021E000C4FA69463846FEF7C0FA17A13846FEF72A
:1021F000BCFA69463846FEF7B8FA14A13846FEF72D
:10220000B4FA0CA93846FEF7B0FA11A13846FEF729
:10221000ACFA09A93846FEF7A8FA0EA13846FEF72F
:10222000A4FA06A93846FEF7A0FA0BA13846FEF735
:102230009CFA0FB0F0BD00003028000831280008DB
:10224000243E0000493100004932000074000000C3
:1022500067000000660000003C20000010B56FF031
:102260000400FFF7B7FC0A4800680A49B0FBF1F028
:10227000094908700846007800EB4001C1EBC01026
:102280004FF6FF7101EAC0000449088010BD00004C
:102290000400002000127A00180000201A0000201C
:1022A0000146114A12784A434FF0E0235A61002256
:1022B0009A611A46126942F001021A6100BF4FF09A
:1022C000E022106900F001021AB100F48032002A05
:1022D000F5D04FF0E022126922F001024FF0E02326
:1022E0001A6100229A617047180000202DE9F04120
:1022F00000240026002700BFFFF73CFA4FF480724D
:102300000E490F48FDF730FFFFF7C4F90D48C769C4
:10231000072607240AE00B49601C51F82000B84248
:1023200003DD601C51F820702646641C502CF2DB43
:10233000BA2006FB00F52846BDE8F08144020020E3
:1023400044060020440A002010B54FF400600B49F9
:10235000086000F02DF84FF480600849091F0860FC
:1023600000F026F84FF480600449086000F020F87F
:102370004FF400600149091F086010BD140C0140B2
:1023800008B501210820FFF735FB4FF44060ADF898
:10239000000003208DF8020014208DF80300694628
:1023A0000248FFF7E9F800F095F808BD000C01407D
:1023B000002001E0411CC8B20A28FBDB7047000086
:1023C00010B54FF4006009490860FFF7F1FF4FF4C2
:1023D000806006490860FFF7EBFF4FF48060034917
:1023E000091D0860FFF7E4FF10BD0000100C01405C
:1023F00070B505460024002618E06006040E4FF470
:1024000080600F490860FFF7D3FF0D480838006867
:1024100000F4006008B1601CC4B24FF48060084949
:10242000091D0860FFF7C4FF701CC6B2082EE4DB6C
:1024300015B9FFF7C5FF01E0FFF786FF204670BD25
:10244000100C014070B50446002524E004F0800023
:1024500020B14FF400601149086004E04FF40060BF
:102460000E49091D0860FFF7A3FF4FF480600B4978
:102470000860FFF79DFF4FF480600849091D086060
:10248000072D02D14000091F08606006040EFFF707
:102490008FFF681CC5B2082DD8DB70BD100C014041
:1024A00010B54FF400600A49086040100860FFF75B
:1024B0007FFF4FF400600649091D0860FFF778FFB1
:1024C0004FF480600249091D0860FFF771FF10BDDD
:1024D000100C014010B54FF4006006490860401030
:1024E000091F0860FFF764FF4FF400600149091FEE
:1024F000086010BD140C014010B54FF400600E4987
:102500000860FFF755FF4FF480600B490860FFF744
:102510004FFF09480838006800F4006008B1012442
:1025200000E000244FF480600349091D0860FFF7B4
:102530003FFF204610BD0000100C0140FEB50246D2
:10254000002500950195029500200024002A01DA5B
:10255000554200E015462B4601B9FEBD0DE00A25A7
:1025600093FBF5F605FB16353035EFB20546401CFA
:102570000DF805700A2593FBF5F3002BEFD1002A27
:1025800002DA451C284600E005462C4600250D547D
:102590000BE0401E251A6D1E1DF8055005B905E01B
:1025A000251A6D1E1DF805500D54F2E700BF08B93D
:1025B0002D250D5400BFD0E7C6B000BFFFF74EFE7B
:1025C0004FF4165000F08EF84FF4165000F0DAF881
:1025D000FEF799FFFFF7D4FEFFF732F9FFF720F976
:1025E00008B900BFFEE7FEF7BFFE012801D100BF1A
:1025F000FEE7FEF7F1FC46E023480088B0F5FA6FED
:1026000026D100202049088044A8FFF7E7F8BDF94B
:102610001001C421484347F6FF7190FBF1F000B26E
:102620004390FEF75BFE4290FFF760FE00B24190E0
:1026300001AB41AA43A942A8FFF79CFD002405E095
:1026400001A8005D11490855601CC4B2FF2CF7D3E6
:102650000F480078012811D10C48FFF75FFD0D21CC
:102660000C48FFF755FD0A210A48FFF751FD0020ED
:1026700007490870FF210548FEF76CF84FF4807198
:1026800001A8FEF767F8B7E700000020440000202B
:1026900002000020004400402DE9F04106460F46AC
:1026A000FEF760FB041E0D4618BF0120284320F0F2
:1026B0000040C0F17F6000F1E040C00F0ED0301C40
:1026C00018BF0120384320F00040C0F17F6000F1C6
:1026D000E040C00F04BF0120FFF746FD2046294619
:1026E000BDE8F08110B586B00446012144F2040033
:1026F000FFF780F94FF40070ADF8140003208DF857
:10270000160018208DF8170005A91C48FEF734FFA5
:102710004FF48060ADF8140004208DF8170005A96F
:102720001648FEF729FF25208DF8000003208DF8BC
:1027300001008DF8020001208DF803006846FFF7C4
:10274000E9F801940020ADF80800ADF80A00ADF8F2
:102750000C00ADF810000C20ADF80E0001A90848DF
:10276000FFF76AFC012240F225510548FFF73FFCC4
:1027700001210348FFF7F8FB06B010BD0008014037
:102780000038014010B586B004464FF4E060FFF712
:10279000F9F826208DF8000001208DF801000020B6
:1027A0008DF8020001208DF803006846FFF7B2F8AB
:1027B00001210420FFF71EF901214804FFF70AF95F
:1027C0000420ADF8140018208DF8170003208DF8B0
:1027D000160005A91448FEF7CFFE0820ADF8140036
:1027E00004208DF8170005A90F48FEF7C5FE0194D7
:1027F0000020ADF80800ADF80A00ADF80C00ADF807
:1028000010000C20ADF80E0001A90848FFF714FCD9
:10281000012240F225510548FFF7E9FB0121034859
:10282000FFF7A2FB06B010BD0008014000440040C5
:1028300064640000542800080000002044000000E8
:1028400048210008982800084400002004120000D5
:10285000582100080000000000A24A040000000007
:102860000000000001020304060708090000000040
:102870000000000001020304010203040607080926
:102880000204060800000000000024333531403304
:082890003531000000000000DA
:0400000508000145A9
:00000001FF
