:020000040800F2
:10000000E00700202D130008B1020008B302000829
:10001000B7020008BB020008BF0200080000000091
:10002000000000000000000000000000C302000803
:10003000C502000800000000C7020008C90200084D
:100040004713000847130008471300084713000828
:100050004713000847130008471300084713000818
:100060004713000847130008471300084713000808
:1000700047130008471300084713000847130008F8
:1000800047130008471300084713000847130008E8
:1000900047130008471300084713000847130008D8
:1000A00047130008471300084713000847130008C8
:1000B0009F01000847130008471300084713000872
:1000C00047130008471300084713000847130008A8
:1000D000471300089D030008730100084713000838
:1000E000471300084713000847130008DFF80CD037
:1000F00001F05EF90048004701010008E007002018
:1001000000F06CFA00F043FA4FF4165000F0E0F8FB
:100110004FF4165000F0B5F900F0B8FA3DA000F029
:100120002AF942A000F027F900F02EFB45A000F0CC
:1001300022F949A000F01FF900F056FB00F05BFB2C
:100140004CA000F018F913E000F086FB4C48007852
:1001500028B14CA000F00FF90020494908704B4825
:100160000078012804D100F09AFB0020474908706C
:10017000EAE710B50024464800F0E9FFC4B245485C
:1001800045490978445444480078401C4249087065
:1001900008460078C82801DD0020087010BD10B5A1
:1001A0000121880700F0C9FE002832D0012188070C
:1001B00000F0D4FE3948007820B139480078401C5E
:1001C000374908703648007836490978884204DD96
:1001D0000020324908703249087033480088401CBA
:1001E0003149088008460088092804DD002008807D
:1001F0000120234908702D48007828B100F0DDF96E
:1002000000202A49087004E000F0DEF901202749A7
:10021000087010BD47505253C4A3BFE94750525312
:10022000B2E2CAD4B3CCD0F20D0A00004750525308
:10023000C4A3BFE9D4DAD7A2B2E1CDF8C2E70D0A70
:100240000000000047505253C4A3BFE9D7A2B2E157
:10025000B3C9B9A60D0A000047505253C4A3BFE961
:10026000BFAACABCC1ACBDD3B7FECEF1C6F70D0A5A
:1002700000000000C1ACBDD3B3C9B9A60D0A00008F
:1002800009000020243335310D0A00000A00002047
:10029000004400404C000020010000200600002027
:1002A0000000002002000020040000200B000020BD
:1002B000704700BFFEE700BFFEE700BFFEE700BFDC
:1002C000FEE770477047704710B500F0CDF910BDDC
:1002D00010B586B00446012144F2040000F0A8FCE9
:1002E0009C4800F053FE4FF40070ADF81400182045
:1002F0008DF8170003208DF8160005A9964800F028
:10030000A7FB4FF48060ADF8140004208DF81700AF
:1003100005A9914800F09CFB01940020ADF808006D
:10032000ADF80A00ADF80C00ADF810000C20ADF8E7
:100330000E0001A9874800F06CFE25208DF8000012
:1003400002208DF8010001208DF802008DF80300D5
:10035000684600F045FB012240F225517D4800F03F
:10036000CDFE01217B4800F0BDFE4021794800F020
:1003700000FF06B010BD10B504460BE000BF4021E1
:10038000744800F0E9FE0028F9D014F8011B714808
:1003900000F0D9FE20780028F0D110BD10B500245F
:1003A00040F225516B4800F0EDFE90B16948001D08
:1003B00000886A49087008460078242802D1012084
:1003C0006749087065480078402802D101206549D6
:1003D000087063480078002852D063480088FF28DE
:1003E00026D85E480178604802880088401C5E4B31
:1003F00018805E48815418460088042820D15C4843
:1004000000785A490978884209D1594840785749B3
:100410004978884203D101205149087010E000203A
:100420004F4908704FF48071504800F098FF07E082
:1004300000204D4908804FF480714C4800F08FFF38
:10044000464800780A281BD145480078C0B10120F1
:1004500048490870002042490870434908804348D1
:10046000FFF789FF002404E04048005D4249085539
:10047000641CFF2CF8D94FF480713C4800F06FFFEA
:1004800010BD10B586B004460121480400F0DDFB24
:100490000121042000F0CCFB384800F077FD042057
:1004A000ADF8140018208DF8170003208DF8160001
:1004B00005A9294800F0CCFA0820ADF81400042062
:1004C0008DF8170005A9244800F0C2FA0194002015
:1004D000ADF80800ADF80A00ADF80C00ADF810005A
:1004E0000C20ADF80E0001A9244800F092FD262052
:1004F0008DF8000001208DF8010000208DF8020029
:1005000001208DF80300684600F06AFA012240F2EB
:1005100025511A4800F0F2FD0121184800F0E2FDD3
:100520004021164800F025FE06B010BD10B5044667
:100530000BE000BF4021114800F00EFE0028F9D06A
:1005400014F8011B0D4800F0FEFD20780028F0D1C2
:1005500010BD0000003801400008014012000020DA
:10056000100000201100002014000020DB020020F9
:10057000160000200A000020DC010020004400409A
:1005800010B54FF4F071144800F0EFFA10BD08B543
:100590000121082000F04CFB4FF47870ADF800000A
:1005A00010208DF8030003208DF8020069460A48E8
:1005B00000F04EFAFFF7E4FF08BD10B54FF480716C
:1005C000054800F0D0FA10BD10B54FF48071024814
:1005D00000F0CBFA10BD0000000C014030B500BFA8
:1005E000264800684FF47A72B0FBF2F1B1F1807FD7
:1005F00001D301201DE021F07F40401E4FF0E0229A
:10060000506150170F22002807DA13071D0E1C4BEC
:1006100000F00F04241F1D5503E013071C0E194B97
:100620001C5400BF00204FF0E022906107201061B1
:1006300000200028D4D14FF0E020006920F0010014
:100640004FF0E021086130BD0F4908604FF0E02114
:10065000096941F001014FF0E022116100BF0A4930
:1006600009680029FBD170470748006820B1064897
:100670000068401E044908607047000038000020F0
:1006800018ED00E000E400E01C0000201FB501218F
:10069000084600F0DAFA42F20F70ADF8080041F6B1
:1006A0001F40ADF804000020ADF80A00ADF80600C8
:1006B00001A94FF0804000F0F9FA1C208DF80000ED
:1006C00001208DF801008DF802008DF803006846C6
:1006D00000F086F901221146900700F025FC012167
:1006E000880700F015FC1FBD002004E00021764AB9
:1006F0001154411C88B2C828F8DB0021734A1170DC
:10070000704710B5044621466F4800F03FFE08B11F
:10071000012010BD0020FCE72DE9F04104460D4604
:100720001646A046FFF7E0FF002727E02846FFF720
:10073000E8FFF8B96648007800BB44460BE000BF0C
:100740004021644800F008FD0028F9D02178614874
:1007500000F0F9FC641C20780028F0D15EA0FFF7BF
:10076000E5FE00205D4908705D480670012058498B
:10077000087003E00127002055490870002FD5D0EC
:10078000FFF7B2FFBDE8F08170B50025FFF7ACFFC1
:1007900027E0FFF7A9FF53A0FFF7C8FE4EA0FFF721
:1007A000C5FE41F28830FFF74FFF002413E04648B2
:1007B000005D3A280DD14449201D085C312803D042
:1007C000201D085C352804D1012543A0FFF7D3FD87
:1007D00003E0601CC4B2C82CE9DB00BF44A0FFF7F3
:1007E000CAFD002DD5D070BD10B5032243A144A091
:1007F000FFF792FF10BD10B543A0FFF797FE6420EE
:10080000FFF722FF022244A145A0FFF785FF022245
:100810003AA146A0FFF780FF022238A147A0FFF7C8
:100820007BFF022235A14CA0FFF776FF022233A105
:100830004CA0FFF771FF022230A150A0FFF76CFF20
:1008400005222EA151480068FFF766FF6420FFF7DC
:10085000FBFEFFF749FF10BD10B54DA11A4800F08F
:1008600095FDD8B100204C4908804C49087064209F
:10087000FFF7EAFE4AA1144800F088FD18B94AA122
:10088000114800F083FD4AA0FFF775FD0E48FFF701
:1008900072FDFFF729FF01204049087010BD10B517
:1008A00047A1484800F066FD022247A147A0FFF794
:1008B00033FF082248A14348FFF72EFFFF2141489C
:1008C00000F04DFD10BD00004C0000200100002094
:1008D00006000020004400400D0A00000000002037
:1008E0000200002041542B435245473F00000000C6
:1008F000D7A2B2E1D6D02E2E2E2E2E004F4B0000C6
:10090000415445300000000041542B434950434CB2
:100910004F53453D3100000053485554204F4B0084
:1009200041542B43495053485554000041542B43E4
:1009300047434C4153533D224222000041542B4334
:100940004744434F4E543D312C224950222C2243E0
:100950004D4E45542200000041542B43474154540E
:100960003D31000041542B434950435347503D31E2
:100970002C22434D4E4554220000000041542B438D
:100980004950484541443D3100000000200000200E
:100990002B49504400000000040000200900002002
:1009A0006F6E6C65640000006F66666C65640000C5
:1009B000CAD5B5BDD0C2D0C5CFA2A3BA0D0A00001A
:1009C0001A000000DC0100203E00000041542B43CF
:1009D000495053454E44000053454E44204F4B0070
:1009E00070B5002100230F22C47804B3154C24688D
:1009F00004F4E064C4F5E064210AC1F10403CA40D0
:100A0000447804FA03F184781440214309010E4C20
:100A10000678A155047804F01F050124AC40057840
:100A20006D11AD0005F1E025C5F8004109E004783D
:100A300004F01F050124AC40044D0678761145F8FA
:100A4000264070BD0CED00E000E400E080E100E035
:100A50002DE9F04102460025002600200023002455
:100A6000002791F803C00CF00F0591F803C00CF0BB
:100A7000100CBCF1000F03D091F802C04CEA050540
:100A800091F800C0BCF1000F31D0146800202BE0B9
:100A90004FF0010C0CFA00F3B1F800C00CEA0306A9
:100AA0009E4220D183004FF00F0C0CFA03F7BC4399
:100AB00005FA03FC4CEA040491F803C0BCF1280FCA
:100AC00006D14FF0010C0CFA00FCC2F814C00AE089
:100AD00091F803C0BCF1480F05D14FF0010C0CFA9E
:100AE00000FCC2F810C0401C0828D1D31460B1F833
:100AF00000C0BCF1FF0F34DD546800202EE000F18F
:100B0000080C4FF0010808FA0CF3B1F800C00CEA29
:100B100003069E4221D183004FF00F0C0CFA03F71D
:100B2000BC4305FA03FC4CEA040491F803C0BCF191
:100B3000280F05D100F1080C08FA0CF8C2F814804F
:100B400091F803C0BCF1480F07D100F1080C4FF039
:100B5000010808FA0CF8C2F81080401C0828CED30F
:100B60005460BDE8F0810161704741617047000049
:100B700030B50021002200240023474D6D6805F0A8
:100B80000C0121B1042905D0082923D105E0434DEA
:100B9000056022E0414D05601FE03F4D6D6805F4A2
:100BA00070123D4D6D6805F48034022505EB9242CC
:100BB0001CB93B4D554305600BE0374D6D6805F49E
:100BC00000351DB1364D5543056002E0334D5543A8
:100BD000056002E0314D056000BF00BF2E4D6D681D
:100BE00005F0F00109092F4D6B5C0568DD4045609B
:100BF000294D6D6805F4E061090A2A4D6B5C456872
:100C0000DD408560244D6D6805F46051C90A254DAD
:100C10006B5C4568DD40C5601F4D6D6805F4404163
:100C2000890B214D6B5CC568B5FBF3F5056130BDE3
:100C300029B1194A92690243174B9A6104E0164A96
:100C400092698243144B9A61704729B1124AD26962
:100C50000243114BDA6104E00F4AD26982430E4B22
:100C6000DA61704729B10C4AD26802430A4BDA6054
:100C700004E0094AD2688243074BDA60704729B121
:100C8000054A12690243044B1A6104E0024A1269E0
:100C90008243014B1A6170470010024000127A0033
:100CA00000093D00240000203400002000220288BA
:100CB000AC4B98420ED0AC4B98420BD0B0F1804F69
:100CC00008D0AA4B984205D0A94B984202D0A94B14
:100CD000984204D14FF68F731A404B881A43A64BA3
:100CE000984207D0A54B984204D04FF6FF431A40D4
:100CF000CB881A4302808B8883850B880385994BA8
:100D000098420BD0984B984208D09D4B984205D002
:100D10009C4B984202D09C4B984201D10B7A03869F
:100D2000012383827047F0B50C461546002200214E
:100D30000026078C4EF6FF7C07EA0C070784828B9F
:100D4000018C4FF6FF7707EA043640F6FF473A403A
:100D50004FF6FF7707EA05273A434FF6FF7707EA92
:100D600003373A437F4FB8420ED07F4FB8420BD083
:100D7000B0F1804F08D07D4FB84205D07C4FB842CB
:100D800002D07C4FB84206D14DF6FF77394046F489
:100D90008057394305E047F6FF57394044F4805700
:100DA000394382830184F0BDF0B50C46154600221C
:100DB00000210026078C4FF6FF6C07EA0C0707841A
:100DC000828B018C4FF6FF7707EA04264FF60C77EB
:100DD0003A404FF6FF7707EA03172F433A43614F34
:100DE000B8420ED0604FB8420BD0B0F1804F08D05F
:100DF0005E4FB84205D05E4FB84202D05D4FB84258
:100E000006D14FF6FF57394046F48077394305E065
:100E10004FF2FF57394044F480773943828301848D
:100E2000F0BDF0B50C461546002200210026078CC7
:100E30004FF6EF7C07EA0C070784028B018C4FF614
:100E4000FF7707EA041640F6FF473A404FF6FF7770
:100E500007EA03373A434FF6FF7707EA05273A4395
:100E6000404FB8420ED0404FB8420BD0B0F1804F47
:100E700008D03E4FB84205D03D4FB84202D03D4F5A
:100E8000B84206D14FF6DF77394046F010073943B4
:100E900005E04FF65F77394044F01007394302838D
:100EA0000184F0BDF0B50C46154600220021068CE9
:100EB0004FF6FE773E400684028B018C4FF60C768F
:100EC00032407E1C06EA03162E433243254EB042C2
:100ED0000ED0254EB0420BD0B0F1804F08D0234E3B
:100EE000B04205D0224EB04202D0224EB04206D1CE
:100EF0004FF6FD76314044F00106314305E04FF6F0
:100F0000F576314044F00106314302830184F0BD9F
:100F100021B1028842F00102028004E002884FF60B
:100F2000FE731A40028070471AB183890B43838194
:100F300002E083898B438381704730B502460020ED
:100F400000230024158A05EA0103958905EA0104B6
:100F500013B10CB1012000E0002030BDCA43028271
:100F600070470000002C01400034014000040040A4
:100F700000080040000C0040001000400014004039
:100F800000400140004401400048014010B50446C3
:100F90009148844209D101218803FFF763FE0021B3
:100FA0004FF48040FFF75EFE32E08C48844209D166
:100FB00001214804FFF763FE00214FF40030FFF7E2
:100FC0005EFE25E08648844209D101218804FFF7AE
:100FD00056FE00214FF48020FFF751FE18E08148B3
:100FE000844209D10121C804FFF749FE00214FF4D2
:100FF0000020FFF744FE0BE07B48844208D101212A
:101000000805FFF73CFE00214FF48010FFF737FE84
:1010100010BD2DE9F04786B005460E460024A246D5
:1010200000BFA1460027B08900B100BF2F462C8A1F
:101030004CF6FF700440F08804432C82AC894EF6D5
:10104000F3100440B0883189084371890843044390
:10105000AC81AC8A4FF6FF400440B0890443AC82B7
:1010600001A8FFF785FD5C48874202D1DDF810A09A
:1010700001E0DDF80CA0A88900F4004040B10AEBC3
:10108000CA0000EB0A1031684900B0FBF1F807E034
:101090000AEBCA0000EB0A1031688900B0FBF1F8D6
:1010A0006420B8FBF0F004012009642101FB1089E1
:1010B000A88900F4004040B1322000EBC900B0FB29
:1010C000F1F000F00700044308E0322000EB0910C3
:1010D0006421B0FBF1F000F00F0004432C8106B056
:1010E000BDE8F08721B1828942F40052828104E098
:1010F00082894DF6FF731A4082817047F0B503462E
:10110000002400260025002040F66A17B94200D1CD
:1011100000BF1846C1F3421401F01F06012707FA69
:1011200006F5012C01D10C3004E0022C01D1103065
:1011300000E014301AB107682F43076002E0076827
:10114000AF430760F0BDC1F30802828070470146DB
:101150008888C0F30800704702460020B1F5007F80
:1011600000D100BF13880B400BB1012000E000202C
:10117000704701F40072B2F5007F00D100BFCA438E
:101180000280704770B5024600240023002500202D
:1011900040F66A16B14200D100BFC1F3421501F01A
:1011A0001F03012606FA03F3012D02D1968933406D
:1011B00006E0022D02D1168A334001E0968A3340C0
:1011C0000C12012606FA04F41688344013B10CB14F
:1011D000012000E0002070BD0038014000440040C4
:1011E00000480040004C0040005000400CB500207A
:1011F000019000904848006840F4803046490860FB
:1012000000BF4548006800F4003000900198401C81
:101210000190009818B90198B0F5A06FF1D13E483F
:10122000006800F4003010B10120009001E00020BF
:1012300000900098012843D13848006840F0100021
:10124000364908600846006820F003000860084638
:10125000006840F0020008602F4840682E4948604E
:101260000846406848600846406840F4806048602E
:101270000846406820F47C1048600846406840F406
:10128000E81048600846006840F08070086000BFC1
:101290002148006800F000700028F9D01E4840681E
:1012A00020F003001C4948600846406840F00200F6
:1012B000486000BF1848406800F00C000828F9D1C9
:1012C0000CBD10B5FFF792FF10BD10B512480068B5
:1012D00040F0010010490860084640681049084085
:1012E0000D494860084600680E4908400A490860F0
:1012F0000846006820F4802008600846406820F412
:10130000FE0048604FF41F008860FFF7DAFF4FF0DF
:1013100000600549086010BD001002400020024036
:101320000000FFF8FFFFF6FE08ED00E006488047EA
:1013300006480047FEE7FEE7FEE7FEE7FEE7FEE7BA
:10134000FEE7FEE7FEE7FEE7CB120008ED0000082F
:10135000D2B201E000F8012B491EFBD270470022F7
:10136000F6E710B513460A4604461946FFF7F0FFA4
:10137000204610BD421E12F8013F002BFBD111F890
:10138000013B02F8013B002BF9D1704730B505460F
:101390002A460B4612F8010B13F8014B08B1A04284
:1013A000F8D01CB1002802D06D1CF1E7284630BDF2
:1013B000064C074D06E0E06840F0010394E80700A2
:1013C00098471034AC42F6D3FEF794FE1814000888
:1013D0003814000802E008C8121F08C1002AFAD118
:1013E00070477047002001E001C1121F002AFBD1A5
:1013F0007047000041542B43495053544152543DCF
:1014000022544350222C2234372E39332E34392E95
:101410003833222C34343300381400080000002004
:101420004C000000D4130008841400084C00002075
:1014300094070000E4130008000000000000000012
:101440000000000100000000000000000000243E39
:101450004033353100000000F413000800000000A4
:101460000102030401020304060708090204060836
:1014700000A24A0400000000000000000102030472
:04148000060708094A
:04000005080000ED02
:00000001FF
